S0200000456D6265646465645F53797374656D735F50726F6A6563742E737265636D
S11300000C9438000C9455000C9455000C94550035
S11300100C9455000C9455000C9455000C94550008
S11300200C9455000C9455000C9455000C945500F8
S11300300C9455000C9455000C9455000C945500E8
S11300400C9455000C9455000C9455000C945500D8
S11300500C9455000C9455000C9455000C945500C8
S11300600C9455000C9455000C9455000C945500B8
S113007011241FBECFEFD4E0DEBFCDBF11E0A0E05E
S1130080B1E0ECE0F1E002C005900D92A030B107C0
S1130090D9F721E0A0E0B1E001C01D92A030B20781
S11300A0E1F70E9457000C9484000C940000CF9355
S11300B0DF93CDB7DEB70E94620080E090E0DF916D
S11300C0CF910895CF93DF93CDB7DEB78AE390E065
S11300D02FEFFC01208384E390E02FEFFC012083C9
S11300E086E290E025E0FC0120838BE390E020E8A9
S11300F0FC01208387E290E025E0FC01208380E07E
S10F010090E0DF91CF910895F894FFCFB8
S9030000FC
